{
  "address": "0xF990E1c5B989d1cA1F7Cda22362778A8615f7f20",
  "abi": [
    {
      "inputs": [
        {
          "internalType": "uint64",
          "name": "subscriptionId",
          "type": "uint64"
        },
        {
          "internalType": "address",
          "name": "_vrfCoordinator",
          "type": "address"
        },
        {
          "internalType": "bytes32",
          "name": "_keyHash",
          "type": "bytes32"
        }
      ],
      "stateMutability": "nonpayable",
      "type": "constructor"
    },
    {
      "inputs": [
        {
          "internalType": "address",
          "name": "have",
          "type": "address"
        },
        {
          "internalType": "address",
          "name": "want",
          "type": "address"
        }
      ],
      "name": "OnlyCoordinatorCanFulfill",
      "type": "error"
    },
    {
      "anonymous": false,
      "inputs": [
        {
          "indexed": true,
          "internalType": "address",
          "name": "collection",
          "type": "address"
        }
      ],
      "name": "CollectionAdded",
      "type": "event"
    },
    {
      "anonymous": false,
      "inputs": [
        {
          "indexed": true,
          "internalType": "address",
          "name": "giver",
          "type": "address"
        },
        {
          "indexed": true,
          "internalType": "address",
          "name": "collection",
          "type": "address"
        },
        {
          "indexed": false,
          "internalType": "uint256",
          "name": "tokenId",
          "type": "uint256"
        },
        {
          "indexed": false,
          "internalType": "string",
          "name": "message",
          "type": "string"
        }
      ],
      "name": "Deposited",
      "type": "event"
    },
    {
      "anonymous": false,
      "inputs": [
        {
          "indexed": true,
          "internalType": "address",
          "name": "ender",
          "type": "address"
        }
      ],
      "name": "Ended",
      "type": "event"
    },
    {
      "anonymous": false,
      "inputs": [
        {
          "indexed": true,
          "internalType": "address",
          "name": "previousOwner",
          "type": "address"
        },
        {
          "indexed": true,
          "internalType": "address",
          "name": "newOwner",
          "type": "address"
        }
      ],
      "name": "OwnershipTransferred",
      "type": "event"
    },
    {
      "anonymous": false,
      "inputs": [
        {
          "indexed": true,
          "internalType": "address",
          "name": "receiver",
          "type": "address"
        },
        {
          "indexed": true,
          "internalType": "address",
          "name": "collection",
          "type": "address"
        },
        {
          "indexed": false,
          "internalType": "uint256",
          "name": "tokenId",
          "type": "uint256"
        }
      ],
      "name": "Received",
      "type": "event"
    },
    {
      "inputs": [],
      "name": "COORDINATOR",
      "outputs": [
        {
          "internalType": "contract VRFCoordinatorV2Interface",
          "name": "",
          "type": "address"
        }
      ],
      "stateMutability": "view",
      "type": "function"
    },
    {
      "inputs": [],
      "name": "END_TIME",
      "outputs": [
        {
          "internalType": "uint256",
          "name": "",
          "type": "uint256"
        }
      ],
      "stateMutability": "view",
      "type": "function"
    },
    {
      "inputs": [
        {
          "internalType": "address",
          "name": "collection",
          "type": "address"
        }
      ],
      "name": "allowListCollection",
      "outputs": [],
      "stateMutability": "nonpayable",
      "type": "function"
    },
    {
      "inputs": [
        {
          "internalType": "address[]",
          "name": "collections",
          "type": "address[]"
        }
      ],
      "name": "allowListCollections",
      "outputs": [],
      "stateMutability": "nonpayable",
      "type": "function"
    },
    {
      "inputs": [],
      "name": "claim",
      "outputs": [],
      "stateMutability": "nonpayable",
      "type": "function"
    },
    {
      "inputs": [
        {
          "internalType": "address",
          "name": "collection",
          "type": "address"
        },
        {
          "internalType": "uint256",
          "name": "tokenId",
          "type": "uint256"
        },
        {
          "internalType": "string",
          "name": "message",
          "type": "string"
        }
      ],
      "name": "deposit",
      "outputs": [],
      "stateMutability": "nonpayable",
      "type": "function"
    },
    {
      "inputs": [],
      "name": "end",
      "outputs": [],
      "stateMutability": "nonpayable",
      "type": "function"
    },
    {
      "inputs": [
        {
          "internalType": "uint256",
          "name": "count",
          "type": "uint256"
        }
      ],
      "name": "getLatestEntries",
      "outputs": [
        {
          "components": [
            {
              "internalType": "address",
              "name": "sender",
              "type": "address"
            },
            {
              "internalType": "address",
              "name": "collection",
              "type": "address"
            },
            {
              "internalType": "uint256",
              "name": "tokenId",
              "type": "uint256"
            },
            {
              "internalType": "string",
              "name": "message",
              "type": "string"
            }
          ],
          "internalType": "struct SecretSanta.Entry[]",
          "name": "",
          "type": "tuple[]"
        }
      ],
      "stateMutability": "view",
      "type": "function"
    },
    {
      "inputs": [
        {
          "internalType": "address",
          "name": "",
          "type": "address"
        },
        {
          "internalType": "address",
          "name": "",
          "type": "address"
        },
        {
          "internalType": "uint256",
          "name": "",
          "type": "uint256"
        },
        {
          "internalType": "bytes",
          "name": "",
          "type": "bytes"
        }
      ],
      "name": "onERC721Received",
      "outputs": [
        {
          "internalType": "bytes4",
          "name": "",
          "type": "bytes4"
        }
      ],
      "stateMutability": "pure",
      "type": "function"
    },
    {
      "inputs": [],
      "name": "owner",
      "outputs": [
        {
          "internalType": "address",
          "name": "",
          "type": "address"
        }
      ],
      "stateMutability": "view",
      "type": "function"
    },
    {
      "inputs": [
        {
          "internalType": "address",
          "name": "user",
          "type": "address"
        }
      ],
      "name": "participated",
      "outputs": [
        {
          "internalType": "bool",
          "name": "",
          "type": "bool"
        }
      ],
      "stateMutability": "view",
      "type": "function"
    },
    {
      "inputs": [],
      "name": "randomResult",
      "outputs": [
        {
          "internalType": "uint256",
          "name": "",
          "type": "uint256"
        }
      ],
      "stateMutability": "view",
      "type": "function"
    },
    {
      "inputs": [
        {
          "internalType": "uint256",
          "name": "requestId",
          "type": "uint256"
        },
        {
          "internalType": "uint256[]",
          "name": "randomWords",
          "type": "uint256[]"
        }
      ],
      "name": "rawFulfillRandomWords",
      "outputs": [],
      "stateMutability": "nonpayable",
      "type": "function"
    },
    {
      "inputs": [
        {
          "internalType": "address",
          "name": "receiver",
          "type": "address"
        }
      ],
      "name": "receiverDetails",
      "outputs": [
        {
          "internalType": "address",
          "name": "",
          "type": "address"
        },
        {
          "internalType": "address",
          "name": "",
          "type": "address"
        },
        {
          "internalType": "uint256",
          "name": "",
          "type": "uint256"
        },
        {
          "internalType": "string",
          "name": "",
          "type": "string"
        }
      ],
      "stateMutability": "view",
      "type": "function"
    },
    {
      "inputs": [],
      "name": "renounceOwnership",
      "outputs": [],
      "stateMutability": "nonpayable",
      "type": "function"
    },
    {
      "inputs": [
        {
          "internalType": "address",
          "name": "giver",
          "type": "address"
        }
      ],
      "name": "senderDetails",
      "outputs": [
        {
          "internalType": "address",
          "name": "",
          "type": "address"
        },
        {
          "internalType": "uint256",
          "name": "",
          "type": "uint256"
        },
        {
          "internalType": "string",
          "name": "",
          "type": "string"
        }
      ],
      "stateMutability": "view",
      "type": "function"
    },
    {
      "inputs": [],
      "name": "totalEntries",
      "outputs": [
        {
          "internalType": "uint256",
          "name": "",
          "type": "uint256"
        }
      ],
      "stateMutability": "view",
      "type": "function"
    },
    {
      "inputs": [
        {
          "internalType": "address",
          "name": "newOwner",
          "type": "address"
        }
      ],
      "name": "transferOwnership",
      "outputs": [],
      "stateMutability": "nonpayable",
      "type": "function"
    }
  ],
  "transactionHash": "0x3be3d134731b09d4994651f37b629e165e3f8281f8e403133129ce999497f2be",
  "args": [
    31,
    "0xd5D517aBE5cF79B7e95eC98dB0f0277788aFF634",
    "0x89630569c9567e43c4fe7b1633258df9f2531b62f2352fa721cf3162ee4ecb46"
  ],
  "numDeployments": 1,
  "solcInputHash": "9ac33b47905bd714818cf6663fa7efc1",
  "bytecode": "0x61014060405262030d4060e0526003610100526001610120523480156200002557600080fd5b5060405162001bef38038062001bef8339810160408190526200004891620000e3565b81620000543362000093565b6001600160a01b03908116608052600380546001600160a01b03191693909116929092179091556001600160401b039190911660a05260c05262000141565b600080546001600160a01b038381166001600160a01b0319831681178455604051919092169283917f8be0079c531659141344cd1fd0a4f28419497f9722a3daafe3b4186f6b6457e09190a35050565b600080600060608486031215620000f957600080fd5b83516001600160401b03811681146200011157600080fd5b60208501519093506001600160a01b03811681146200012f57600080fd5b80925050604084015190509250925092565b60805160a05160c05160e0516101005161012051611a5762000198600039600061114a015260006110f6015260006111220152600061109d015260006110cc015260008181610333015261038e0152611a576000f3fe608060405234801561001057600080fd5b50600436106101365760003560e01c80638da5cb5b116100b2578063b3bd870a11610081578063cae923d311610066578063cae923d3146102fa578063efbe1c1c1461030d578063f2fde38b1461031557600080fd5b8063b3bd870a146102ac578063bfe07da6146102e757600080fd5b80638da5cb5b146102435780639a3452e5146102545780639b5f7a8c146102775780639be3f6491461028a57600080fd5b80633d813822116101095780634e71d92d116100ee5780634e71d92d1461022b578063715018a6146102335780637fef036e1461023b57600080fd5b80633d8138221461020257806342619f661461022257600080fd5b8063150b7a021461013b5780631fe543e3146101a957806337ba682d146101be5780633b2bcbf1146101d7575b600080fd5b610173610149366004611519565b7f150b7a020000000000000000000000000000000000000000000000000000000095945050505050565b6040517fffffffff0000000000000000000000000000000000000000000000000000000090911681526020015b60405180910390f35b6101bc6101b73660046115a2565b610328565b005b6101c96363b0cd0081565b6040519081526020016101a0565b6003546101ea906001600160a01b031681565b6040516001600160a01b0390911681526020016101a0565b61021561021036600461166c565b6103ce565b6040516101a091906116d2565b6101c960045481565b6101bc6105b6565b6101bc61092d565b6006546101c9565b6000546001600160a01b03166101ea565b610267610262366004611769565b610941565b6040516101a0949392919061178d565b6101bc6102853660046117c9565b610abb565b61029d610298366004611769565b610b74565b6040516101a09392919061183e565b6102d76102ba366004611769565b6001600160a01b0316600090815260056020526040902054151590565b60405190151581526020016101a0565b6101bc6102f536600461186f565b610c7e565b6101bc610308366004611769565b610f4c565b6101bc610f97565b6101bc610323366004611769565b611204565b336001600160a01b037f000000000000000000000000000000000000000000000000000000000000000016146103c0576040517f1cf993f40000000000000000000000000000000000000000000000000000000081523360048201526001600160a01b037f00000000000000000000000000000000000000000000000000000000000000001660248201526044015b60405180910390fd5b6103ca8282611294565b5050565b60065460609060009083116103e357826103e7565b6006545b905060008167ffffffffffffffff8111156104045761040461158c565b60405190808252806020026020018201604052801561045557816020015b60408051608081018252600080825260208083018290529282015260608082015282526000199092019101816104225790505b506006549091506000905b60065461046e9085906118e1565b8111156105ac5760066104826001836118e1565b81548110610492576104926118f8565b600091825260209182902060408051608081018252600490930290910180546001600160a01b039081168452600182015416938301939093526002830154908201526003820180549192916060840191906104ec9061190e565b80601f01602080910402602001604051908101604052809291908181526020018280546105189061190e565b80156105655780601f1061053a57610100808354040283529160200191610565565b820191906000526020600020905b81548152906001019060200180831161054857829003601f168201915b505050505081525050838381518110610580576105806118f8565b6020026020010181905250818061059690611949565b92505080806105a490611964565b915050610460565b5090949350505050565b6004546106055760405162461bcd60e51b815260206004820152600960248201527f4e6f7420656e646564000000000000000000000000000000000000000000000060448201526064016103b7565b336000908152600560205260409020546106615760405162461bcd60e51b815260206004820152600b60248201527f4e6f7420656e746572656400000000000000000000000000000000000000000060448201526064016103b7565b6006805460045433600090815260056020526040812054909392916106859161197b565b61068f9190611993565b8154811061069f5761069f6118f8565b600091825260209182902060408051608081018252600490930290910180546001600160a01b039081168452600182015416938301939093526002830154908201526003820180549192916060840191906106f99061190e565b80601f01602080910402602001604051908101604052809291908181526020018280546107259061190e565b80156107725780601f1061074757610100808354040283529160200191610772565b820191906000526020600020905b81548152906001019060200180831161075557829003601f168201915b5050505050815250509050306001600160a01b031681602001516001600160a01b0316636352211e83604001516040518263ffffffff1660e01b81526004016107bd91815260200190565b60206040518083038186803b1580156107d557600080fd5b505afa1580156107e9573d6000803e3d6000fd5b505050506040513d601f19601f8201168201806040525081019061080d91906119b5565b6001600160a01b0316146108635760405162461bcd60e51b815260206004820152600f60248201527f416c726561647920636c61696d6564000000000000000000000000000000000060448201526064016103b7565b60208101516040808301519051632142170760e11b815230600482015233602482015260448101919091526001600160a01b03909116906342842e0e90606401600060405180830381600087803b1580156108bd57600080fd5b505af11580156108d1573d6000803e3d6000fd5b5050505080602001516001600160a01b0316336001600160a01b03167f8cabf31d2b1b11ba52dbb302817a3c9c83e4b2a5194d35121ab1354d69f6a4cb836040015160405161092291815260200190565b60405180910390a350565b6109356112dc565b61093f6000611336565b565b60008060006060600454600014156109715750506040805160208101909152600080825292508291508190610ab4565b600680546004546001600160a01b0388166000908152600560205260408120549093929161099e9161197b565b6109a89190611993565b815481106109b8576109b86118f8565b600091825260209182902060408051608081018252600490930290910180546001600160a01b03908116845260018201541693830193909352600283015490820152600382018054919291606084019190610a129061190e565b80601f0160208091040260200160405190810160405280929190818152602001828054610a3e9061190e565b8015610a8b5780601f10610a6057610100808354040283529160200191610a8b565b820191906000526020600020905b815481529060010190602001808311610a6e57829003601f168201915b505050505081525050905080600001518160200151826040015183606001519450945094509450505b9193509193565b610ac36112dc565b8060005b81811015610b6e57610b01848483818110610ae457610ae46118f8565b9050602002016020810190610af99190611769565b600190611393565b50838382818110610b1457610b146118f8565b9050602002016020810190610b299190611769565b6001600160a01b03167f7701426aaa4c0c88a30924a7aba88dce66b18c4020b54e4e19c9e0eb0abc299260405160405180910390a2610b6781611949565b9050610ac7565b50505050565b6001600160a01b03811660009081526005602052604081205481906060908290600690610ba3906001906118e1565b81548110610bb357610bb36118f8565b906000526020600020906004020190508060010160009054906101000a90046001600160a01b0316816002015482600301808054610bf09061190e565b80601f0160208091040260200160405190810160405280929190818152602001828054610c1c9061190e565b8015610c695780601f10610c3e57610100808354040283529160200191610c69565b820191906000526020600020905b815481529060010190602001808311610c4c57829003601f168201915b50505050509050935093509350509193909250565b610c896001856113b1565b610cd55760405162461bcd60e51b815260206004820152601c60248201527f436f6c6c656374696f6e206e6f7420696e20616c6c6f77206c6973740000000060448201526064016103b7565b600354600160a01b900460ff1615610d2f5760405162461bcd60e51b815260206004820152600560248201527f456e64656400000000000000000000000000000000000000000000000000000060448201526064016103b7565b3360009081526005602052604090205415610d8c5760405162461bcd60e51b815260206004820152601960248201527f4164647265737320616c7265616479206465706f73697465640000000000000060448201526064016103b7565b60066040518060800160405280336001600160a01b03168152602001866001600160a01b0316815260200185815260200184848080601f0160208091040260200160405190810160405280939291908181526020018383808284376000920182905250939094525050835460018181018655948252602091829020845160049092020180546001600160a01b0392831673ffffffffffffffffffffffffffffffffffffffff199182161782558386015196820180549790931696169590951790556040830151600285015560608301518051939493610e75935060038501929190910190611422565b50506006543360008181526005602052604090819020929092559051632142170760e11b81526004810191909152306024820152604481018590526001600160a01b03861691506342842e0e90606401600060405180830381600087803b158015610edf57600080fd5b505af1158015610ef3573d6000803e3d6000fd5b50505050836001600160a01b0316336001600160a01b03167f2bc500cf071be2d1c1458ed6ff484cd4db4345ada8943dee7ff29e7af3558f76858585604051610f3e939291906119d2565b60405180910390a350505050565b610f546112dc565b610f5f600182611393565b506040516001600160a01b038216907f7701426aaa4c0c88a30924a7aba88dce66b18c4020b54e4e19c9e0eb0abc299290600090a250565b600354600160a01b900460ff1615610ff15760405162461bcd60e51b815260206004820152601860248201527f52616e646f6d20616c726561647920696e69746961746564000000000000000060448201526064016103b7565b6363b0cd004210156110455760405162461bcd60e51b815260206004820152600b60248201527f4e6f7420656e6461626c6500000000000000000000000000000000000000000060448201526064016103b7565b60038054600160a01b7fffffffffffffffffffffff00ffffffffffffffffffffffffffffffffffffffff8216179091556040517f5d3b1d300000000000000000000000000000000000000000000000000000000081527f0000000000000000000000000000000000000000000000000000000000000000600482015267ffffffffffffffff7f000000000000000000000000000000000000000000000000000000000000000016602482015261ffff7f000000000000000000000000000000000000000000000000000000000000000016604482015263ffffffff7f0000000000000000000000000000000000000000000000000000000000000000811660648301527f00000000000000000000000000000000000000000000000000000000000000001660848201526001600160a01b0390911690635d3b1d309060a401602060405180830381600087803b15801561119e57600080fd5b505af11580156111b2573d6000803e3d6000fd5b505050506040513d601f19601f820116820180604052508101906111d69190611a08565b5060405133907f5699deef3e04be804ac29c66b1ca35e41bc435d9a0326d9a6ae520ae1a1e875590600090a2565b61120c6112dc565b6001600160a01b0381166112885760405162461bcd60e51b815260206004820152602660248201527f4f776e61626c653a206e6577206f776e657220697320746865207a65726f206160448201527f646472657373000000000000000000000000000000000000000000000000000060648201526084016103b7565b61129181611336565b50565b6000600680549050826000815181106112af576112af6118f8565b60200260200101516112c19190611993565b9050806001146112d157806112d4565b60025b600455505050565b6000546001600160a01b0316331461093f5760405162461bcd60e51b815260206004820181905260248201527f4f776e61626c653a2063616c6c6572206973206e6f7420746865206f776e657260448201526064016103b7565b600080546001600160a01b0383811673ffffffffffffffffffffffffffffffffffffffff19831681178455604051919092169283917f8be0079c531659141344cd1fd0a4f28419497f9722a3daafe3b4186f6b6457e09190a35050565b60006113a8836001600160a01b0384166113d3565b90505b92915050565b6001600160a01b038116600090815260018301602052604081205415156113a8565b600081815260018301602052604081205461141a575081546001818101845560008481526020808220909301849055845484825282860190935260409020919091556113ab565b5060006113ab565b82805461142e9061190e565b90600052602060002090601f0160209004810192826114505760008555611496565b82601f1061146957805160ff1916838001178555611496565b82800160010185558215611496579182015b8281111561149657825182559160200191906001019061147b565b506114a29291506114a6565b5090565b5b808211156114a257600081556001016114a7565b6001600160a01b038116811461129157600080fd5b60008083601f8401126114e257600080fd5b50813567ffffffffffffffff8111156114fa57600080fd5b60208301915083602082850101111561151257600080fd5b9250929050565b60008060008060006080868803121561153157600080fd5b853561153c816114bb565b9450602086013561154c816114bb565b935060408601359250606086013567ffffffffffffffff81111561156f57600080fd5b61157b888289016114d0565b969995985093965092949392505050565b634e487b7160e01b600052604160045260246000fd5b600080604083850312156115b557600080fd5b8235915060208084013567ffffffffffffffff808211156115d557600080fd5b818601915086601f8301126115e957600080fd5b8135818111156115fb576115fb61158c565b8060051b604051601f19603f830116810181811085821117156116205761162061158c565b60405291825284820192508381018501918983111561163e57600080fd5b938501935b8285101561165c57843584529385019392850192611643565b8096505050505050509250929050565b60006020828403121561167e57600080fd5b5035919050565b6000815180845260005b818110156116ab5760208185018101518683018201520161168f565b818111156116bd576000602083870101525b50601f01601f19169290920160200192915050565b60006020808301818452808551808352604092508286019150828160051b87010184880160005b8381101561175b57888303603f19018552815180516001600160a01b039081168552888201511688850152868101518785015260609081015160809185018290529061174781860183611685565b9689019694505050908601906001016116f9565b509098975050505050505050565b60006020828403121561177b57600080fd5b8135611786816114bb565b9392505050565b60006001600160a01b038087168352808616602084015250836040830152608060608301526117bf6080830184611685565b9695505050505050565b600080602083850312156117dc57600080fd5b823567ffffffffffffffff808211156117f457600080fd5b818501915085601f83011261180857600080fd5b81358181111561181757600080fd5b8660208260051b850101111561182c57600080fd5b60209290920196919550909350505050565b6001600160a01b03841681528260208201526060604082015260006118666060830184611685565b95945050505050565b6000806000806060858703121561188557600080fd5b8435611890816114bb565b935060208501359250604085013567ffffffffffffffff8111156118b357600080fd5b6118bf878288016114d0565b95989497509550505050565b634e487b7160e01b600052601160045260246000fd5b6000828210156118f3576118f36118cb565b500390565b634e487b7160e01b600052603260045260246000fd5b600181811c9082168061192257607f821691505b6020821081141561194357634e487b7160e01b600052602260045260246000fd5b50919050565b600060001982141561195d5761195d6118cb565b5060010190565b600081611973576119736118cb565b506000190190565b6000821982111561198e5761198e6118cb565b500190565b6000826119b057634e487b7160e01b600052601260045260246000fd5b500690565b6000602082840312156119c757600080fd5b8151611786816114bb565b83815260406020820152816040820152818360608301376000818301606090810191909152601f909201601f1916010192915050565b600060208284031215611a1a57600080fd5b505191905056fea26469706673582212207628828c5e45b8f4030f0b105e3b313cec13306012c52686bf8829c901e871c964736f6c63430008090033",
  "devdoc": {
    "kind": "dev",
    "methods": {
      "owner()": {
        "details": "Returns the address of the current owner."
      },
      "renounceOwnership()": {
        "details": "Leaves the contract without owner. It will not be possible to call `onlyOwner` functions anymore. Can only be called by the current owner. NOTE: Renouncing ownership will leave the contract without an owner, thereby removing any functionality that is only available to the owner."
      },
      "transferOwnership(address)": {
        "details": "Transfers ownership of the contract to a new account (`newOwner`). Can only be called by the current owner."
      }
    },
    "version": 1
  },
  "userdoc": {
    "kind": "user",
    "methods": {
      "allowListCollection(address)": {
        "notice": "Add an ERC751 collection to the allow list."
      },
      "claim()": {
        "notice": "Sends the token received to the caller."
      },
      "deposit(address,uint256,string)": {
        "notice": "Deposit a token from a verified collection and enter.The contract must be approved to spend this token before calling this function."
      },
      "end()": {
        "notice": "Call chainlink VRF and set `randomCalled`."
      },
      "receiverDetails(address)": {
        "notice": "Returns the collection, tokenId and for a gift."
      },
      "senderDetails(address)": {
        "notice": "Returns the details of a gift for a giver."
      }
    },
    "version": 1
  },
  "storageLayout": {
    "storage": [
      {
        "astId": 161,
        "contract": "contracts/SecretSanta.sol:SecretSanta",
        "label": "_owner",
        "offset": 0,
        "slot": "0",
        "type": "t_address"
      },
      {
        "astId": 1603,
        "contract": "contracts/SecretSanta.sol:SecretSanta",
        "label": "collectionAllowList",
        "offset": 0,
        "slot": "1",
        "type": "t_struct(AddressSet)1259_storage"
      },
      {
        "astId": 1606,
        "contract": "contracts/SecretSanta.sol:SecretSanta",
        "label": "COORDINATOR",
        "offset": 0,
        "slot": "3",
        "type": "t_contract(VRFCoordinatorV2Interface)153"
      },
      {
        "astId": 1624,
        "contract": "contracts/SecretSanta.sol:SecretSanta",
        "label": "randomCalled",
        "offset": 20,
        "slot": "3",
        "type": "t_bool"
      },
      {
        "astId": 1626,
        "contract": "contracts/SecretSanta.sol:SecretSanta",
        "label": "randomResult",
        "offset": 0,
        "slot": "4",
        "type": "t_uint256"
      },
      {
        "astId": 1630,
        "contract": "contracts/SecretSanta.sol:SecretSanta",
        "label": "entryIndex",
        "offset": 0,
        "slot": "5",
        "type": "t_mapping(t_address,t_uint256)"
      },
      {
        "astId": 1634,
        "contract": "contracts/SecretSanta.sol:SecretSanta",
        "label": "entries",
        "offset": 0,
        "slot": "6",
        "type": "t_array(t_struct(Entry)1574_storage)dyn_storage"
      }
    ],
    "types": {
      "t_address": {
        "encoding": "inplace",
        "label": "address",
        "numberOfBytes": "20"
      },
      "t_array(t_bytes32)dyn_storage": {
        "base": "t_bytes32",
        "encoding": "dynamic_array",
        "label": "bytes32[]",
        "numberOfBytes": "32"
      },
      "t_array(t_struct(Entry)1574_storage)dyn_storage": {
        "base": "t_struct(Entry)1574_storage",
        "encoding": "dynamic_array",
        "label": "struct SecretSanta.Entry[]",
        "numberOfBytes": "32"
      },
      "t_bool": {
        "encoding": "inplace",
        "label": "bool",
        "numberOfBytes": "1"
      },
      "t_bytes32": {
        "encoding": "inplace",
        "label": "bytes32",
        "numberOfBytes": "32"
      },
      "t_contract(VRFCoordinatorV2Interface)153": {
        "encoding": "inplace",
        "label": "contract VRFCoordinatorV2Interface",
        "numberOfBytes": "20"
      },
      "t_mapping(t_address,t_uint256)": {
        "encoding": "mapping",
        "key": "t_address",
        "label": "mapping(address => uint256)",
        "numberOfBytes": "32",
        "value": "t_uint256"
      },
      "t_mapping(t_bytes32,t_uint256)": {
        "encoding": "mapping",
        "key": "t_bytes32",
        "label": "mapping(bytes32 => uint256)",
        "numberOfBytes": "32",
        "value": "t_uint256"
      },
      "t_string_storage": {
        "encoding": "bytes",
        "label": "string",
        "numberOfBytes": "32"
      },
      "t_struct(AddressSet)1259_storage": {
        "encoding": "inplace",
        "label": "struct EnumerableSet.AddressSet",
        "members": [
          {
            "astId": 1258,
            "contract": "contracts/SecretSanta.sol:SecretSanta",
            "label": "_inner",
            "offset": 0,
            "slot": "0",
            "type": "t_struct(Set)944_storage"
          }
        ],
        "numberOfBytes": "64"
      },
      "t_struct(Entry)1574_storage": {
        "encoding": "inplace",
        "label": "struct SecretSanta.Entry",
        "members": [
          {
            "astId": 1567,
            "contract": "contracts/SecretSanta.sol:SecretSanta",
            "label": "sender",
            "offset": 0,
            "slot": "0",
            "type": "t_address"
          },
          {
            "astId": 1569,
            "contract": "contracts/SecretSanta.sol:SecretSanta",
            "label": "collection",
            "offset": 0,
            "slot": "1",
            "type": "t_address"
          },
          {
            "astId": 1571,
            "contract": "contracts/SecretSanta.sol:SecretSanta",
            "label": "tokenId",
            "offset": 0,
            "slot": "2",
            "type": "t_uint256"
          },
          {
            "astId": 1573,
            "contract": "contracts/SecretSanta.sol:SecretSanta",
            "label": "message",
            "offset": 0,
            "slot": "3",
            "type": "t_string_storage"
          }
        ],
        "numberOfBytes": "128"
      },
      "t_struct(Set)944_storage": {
        "encoding": "inplace",
        "label": "struct EnumerableSet.Set",
        "members": [
          {
            "astId": 939,
            "contract": "contracts/SecretSanta.sol:SecretSanta",
            "label": "_values",
            "offset": 0,
            "slot": "0",
            "type": "t_array(t_bytes32)dyn_storage"
          },
          {
            "astId": 943,
            "contract": "contracts/SecretSanta.sol:SecretSanta",
            "label": "_indexes",
            "offset": 0,
            "slot": "1",
            "type": "t_mapping(t_bytes32,t_uint256)"
          }
        ],
        "numberOfBytes": "64"
      },
      "t_uint256": {
        "encoding": "inplace",
        "label": "uint256",
        "numberOfBytes": "32"
      }
    }
  }
}